{
  "_format": "hh-sol-artifact-1",
  "contractName": "NftPilarofEducation",
  "sourceName": "contracts/NftPilarofEd.sol",
  "abi": [
    {
      "inputs": [],
      "stateMutability": "nonpayable",
      "type": "constructor"
    },
    {
      "anonymous": false,
      "inputs": [
        {
          "indexed": true,
          "internalType": "address",
          "name": "owner",
          "type": "address"
        },
        {
          "indexed": true,
          "internalType": "address",
          "name": "approved",
          "type": "address"
        },
        {
          "indexed": true,
          "internalType": "uint256",
          "name": "tokenId",
          "type": "uint256"
        }
      ],
      "name": "Approval",
      "type": "event"
    },
    {
      "anonymous": false,
      "inputs": [
        {
          "indexed": true,
          "internalType": "address",
          "name": "owner",
          "type": "address"
        },
        {
          "indexed": true,
          "internalType": "address",
          "name": "operator",
          "type": "address"
        },
        {
          "indexed": false,
          "internalType": "bool",
          "name": "approved",
          "type": "bool"
        }
      ],
      "name": "ApprovalForAll",
      "type": "event"
    },
    {
      "anonymous": false,
      "inputs": [
        {
          "indexed": true,
          "internalType": "address",
          "name": "from",
          "type": "address"
        },
        {
          "indexed": true,
          "internalType": "address",
          "name": "to",
          "type": "address"
        },
        {
          "indexed": true,
          "internalType": "uint256",
          "name": "tokenId",
          "type": "uint256"
        }
      ],
      "name": "Transfer",
      "type": "event"
    },
    {
      "inputs": [],
      "name": "TOKEN_IMAGE_URI",
      "outputs": [
        {
          "internalType": "string",
          "name": "",
          "type": "string"
        }
      ],
      "stateMutability": "view",
      "type": "function"
    },
    {
      "inputs": [
        {
          "internalType": "address",
          "name": "to",
          "type": "address"
        },
        {
          "internalType": "uint256",
          "name": "tokenId",
          "type": "uint256"
        }
      ],
      "name": "approve",
      "outputs": [],
      "stateMutability": "nonpayable",
      "type": "function"
    },
    {
      "inputs": [
        {
          "internalType": "address",
          "name": "owner",
          "type": "address"
        }
      ],
      "name": "balanceOf",
      "outputs": [
        {
          "internalType": "uint256",
          "name": "",
          "type": "uint256"
        }
      ],
      "stateMutability": "view",
      "type": "function"
    },
    {
      "inputs": [
        {
          "internalType": "uint256",
          "name": "tokenId",
          "type": "uint256"
        }
      ],
      "name": "getApproved",
      "outputs": [
        {
          "internalType": "address",
          "name": "",
          "type": "address"
        }
      ],
      "stateMutability": "view",
      "type": "function"
    },
    {
      "inputs": [],
      "name": "getTokenCounter",
      "outputs": [
        {
          "internalType": "uint256",
          "name": "",
          "type": "uint256"
        }
      ],
      "stateMutability": "view",
      "type": "function"
    },
    {
      "inputs": [
        {
          "internalType": "address",
          "name": "addr",
          "type": "address"
        }
      ],
      "name": "hasNft",
      "outputs": [
        {
          "internalType": "bool",
          "name": "",
          "type": "bool"
        }
      ],
      "stateMutability": "view",
      "type": "function"
    },
    {
      "inputs": [
        {
          "internalType": "address",
          "name": "owner",
          "type": "address"
        },
        {
          "internalType": "address",
          "name": "operator",
          "type": "address"
        }
      ],
      "name": "isApprovedForAll",
      "outputs": [
        {
          "internalType": "bool",
          "name": "",
          "type": "bool"
        }
      ],
      "stateMutability": "view",
      "type": "function"
    },
    {
      "inputs": [],
      "name": "name",
      "outputs": [
        {
          "internalType": "string",
          "name": "",
          "type": "string"
        }
      ],
      "stateMutability": "view",
      "type": "function"
    },
    {
      "inputs": [
        {
          "internalType": "uint256",
          "name": "tokenId",
          "type": "uint256"
        }
      ],
      "name": "ownerOf",
      "outputs": [
        {
          "internalType": "address",
          "name": "",
          "type": "address"
        }
      ],
      "stateMutability": "view",
      "type": "function"
    },
    {
      "inputs": [
        {
          "internalType": "address",
          "name": "",
          "type": "address"
        }
      ],
      "name": "s_hasNft",
      "outputs": [
        {
          "internalType": "bool",
          "name": "",
          "type": "bool"
        }
      ],
      "stateMutability": "view",
      "type": "function"
    },
    {
      "inputs": [
        {
          "internalType": "address",
          "name": "from",
          "type": "address"
        },
        {
          "internalType": "address",
          "name": "to",
          "type": "address"
        },
        {
          "internalType": "uint256",
          "name": "tokenId",
          "type": "uint256"
        }
      ],
      "name": "safeTransferFrom",
      "outputs": [],
      "stateMutability": "nonpayable",
      "type": "function"
    },
    {
      "inputs": [
        {
          "internalType": "address",
          "name": "from",
          "type": "address"
        },
        {
          "internalType": "address",
          "name": "to",
          "type": "address"
        },
        {
          "internalType": "uint256",
          "name": "tokenId",
          "type": "uint256"
        },
        {
          "internalType": "bytes",
          "name": "data",
          "type": "bytes"
        }
      ],
      "name": "safeTransferFrom",
      "outputs": [],
      "stateMutability": "nonpayable",
      "type": "function"
    },
    {
      "inputs": [
        {
          "internalType": "address",
          "name": "operator",
          "type": "address"
        },
        {
          "internalType": "bool",
          "name": "approved",
          "type": "bool"
        }
      ],
      "name": "setApprovalForAll",
      "outputs": [],
      "stateMutability": "nonpayable",
      "type": "function"
    },
    {
      "inputs": [
        {
          "internalType": "bytes4",
          "name": "interfaceId",
          "type": "bytes4"
        }
      ],
      "name": "supportsInterface",
      "outputs": [
        {
          "internalType": "bool",
          "name": "",
          "type": "bool"
        }
      ],
      "stateMutability": "view",
      "type": "function"
    },
    {
      "inputs": [],
      "name": "symbol",
      "outputs": [
        {
          "internalType": "string",
          "name": "",
          "type": "string"
        }
      ],
      "stateMutability": "view",
      "type": "function"
    },
    {
      "inputs": [
        {
          "internalType": "uint256",
          "name": "",
          "type": "uint256"
        }
      ],
      "name": "tokenURI",
      "outputs": [
        {
          "internalType": "string",
          "name": "",
          "type": "string"
        }
      ],
      "stateMutability": "view",
      "type": "function"
    },
    {
      "inputs": [
        {
          "internalType": "address",
          "name": "from",
          "type": "address"
        },
        {
          "internalType": "address",
          "name": "to",
          "type": "address"
        },
        {
          "internalType": "uint256",
          "name": "tokenId",
          "type": "uint256"
        }
      ],
      "name": "transferFrom",
      "outputs": [],
      "stateMutability": "nonpayable",
      "type": "function"
    }
  ],
  "bytecode": "0x60806040523480156200001157600080fd5b506040518060400160405280600c81526020017f53747265616d54726976696100000000000000000000000000000000000000008152506040518060400160405280600781526020017f6c6576656c203100000000000000000000000000000000000000000000000000815250816000908051906020019062000096929190620000c0565b508060019080519060200190620000af929190620000c0565b5050506000600681905550620001d5565b828054620000ce9062000170565b90600052602060002090601f016020900481019282620000f257600085556200013e565b82601f106200010d57805160ff19168380011785556200013e565b828001600101855582156200013e579182015b828111156200013d57825182559160200191906001019062000120565b5b5090506200014d919062000151565b5090565b5b808211156200016c57600081600090555060010162000152565b5090565b600060028204905060018216806200018957607f821691505b60208210811415620001a0576200019f620001a6565b5b50919050565b7f4e487b7100000000000000000000000000000000000000000000000000000000600052602260045260246000fd5b61274e80620001e56000396000f3fe608060405234801561001057600080fd5b506004361061010b5760003560e01c80636352211e116100a2578063a22cb46511610071578063a22cb465146102cc578063b88d4fde146102e8578063c87b56dd14610304578063e985e9c514610334578063f5d18d35146103645761010b565b80636352211e146102305780636e02007d1461026057806370a082311461027e57806395d89b41146102ae5761010b565b806323b872dd116100de57806323b872dd146101aa57806342842e0e146101c65780634ed7ff63146101e25780635dbe700f146102125761010b565b806301ffc9a71461011057806306fdde0314610140578063081812fc1461015e578063095ea7b31461018e575b600080fd5b61012a60048036038101906101259190611969565b610394565b6040516101379190611d62565b60405180910390f35b610148610476565b6040516101559190611d7d565b60405180910390f35b610178600480360381019061017391906119c3565b610508565b6040516101859190611cfb565b60405180910390f35b6101a860048036038101906101a39190611929565b61054e565b005b6101c460048036038101906101bf9190611813565b610666565b005b6101e060048036038101906101db9190611813565b6106c6565b005b6101fc60048036038101906101f791906117a6565b6106e6565b6040516102099190611d62565b60405180910390f35b61021a61073c565b6040516102279190611d7d565b60405180910390f35b61024a600480360381019061024591906119c3565b610758565b6040516102579190611cfb565b60405180910390f35b6102686107df565b6040516102759190611ebf565b60405180910390f35b610298600480360381019061029391906117a6565b6107e9565b6040516102a59190611ebf565b60405180910390f35b6102b66108a1565b6040516102c39190611d7d565b60405180910390f35b6102e660048036038101906102e191906118e9565b610933565b005b61030260048036038101906102fd9190611866565b610949565b005b61031e600480360381019061031991906119c3565b6109ab565b60405161032b9190611d7d565b60405180910390f35b61034e600480360381019061034991906117d3565b610a25565b60405161035b9190611d62565b60405180910390f35b61037e600480360381019061037991906117a6565b610ab9565b60405161038b9190611d62565b60405180910390f35b60007f80ac58cd000000000000000000000000000000000000000000000000000000007bffffffffffffffffffffffffffffffffffffffffffffffffffffffff1916827bffffffffffffffffffffffffffffffffffffffffffffffffffffffff1916148061045f57507f5b5e139f000000000000000000000000000000000000000000000000000000007bffffffffffffffffffffffffffffffffffffffffffffffffffffffff1916827bffffffffffffffffffffffffffffffffffffffffffffffffffffffff1916145b8061046f575061046e82610ad9565b5b9050919050565b6060600080546104859061213e565b80601f01602080910402602001604051908101604052809291908181526020018280546104b19061213e565b80156104fe5780601f106104d3576101008083540402835291602001916104fe565b820191906000526020600020905b8154815290600101906020018083116104e157829003601f168201915b5050505050905090565b600061051382610b43565b6004600083815260200190815260200160002060009054906101000a900473ffffffffffffffffffffffffffffffffffffffff169050919050565b600061055982610758565b90508073ffffffffffffffffffffffffffffffffffffffff168373ffffffffffffffffffffffffffffffffffffffff1614156105ca576040517f08c379a00000000000000000000000000000000000000000000000000000000081526004016105c190611e7f565b60405180910390fd5b8073ffffffffffffffffffffffffffffffffffffffff166105e9610b8e565b73ffffffffffffffffffffffffffffffffffffffff161480610618575061061781610612610b8e565b610a25565b5b610657576040517f08c379a000000000000000000000000000000000000000000000000000000000815260040161064e90611e9f565b60405180910390fd5b6106618383610b96565b505050565b610677610671610b8e565b82610c4f565b6106b6576040517f08c379a00000000000000000000000000000000000000000000000000000000081526004016106ad90611d9f565b60405180910390fd5b6106c1838383610ce4565b505050565b6106e183838360405180602001604052806000815250610949565b505050565b6000600760008373ffffffffffffffffffffffffffffffffffffffff1673ffffffffffffffffffffffffffffffffffffffff16815260200190815260200160002060009054906101000a900460ff169050919050565b6040518060800160405280604381526020016126966043913981565b60008061076483610fde565b9050600073ffffffffffffffffffffffffffffffffffffffff168173ffffffffffffffffffffffffffffffffffffffff1614156107d6576040517f08c379a00000000000000000000000000000000000000000000000000000000081526004016107cd90611e5f565b60405180910390fd5b80915050919050565b6000600654905090565b60008073ffffffffffffffffffffffffffffffffffffffff168273ffffffffffffffffffffffffffffffffffffffff16141561085a576040517f08c379a000000000000000000000000000000000000000000000000000000000815260040161085190611e3f565b60405180910390fd5b600360008373ffffffffffffffffffffffffffffffffffffffff1673ffffffffffffffffffffffffffffffffffffffff168152602001908152602001600020549050919050565b6060600180546108b09061213e565b80601f01602080910402602001604051908101604052809291908181526020018280546108dc9061213e565b80156109295780601f106108fe57610100808354040283529160200191610929565b820191906000526020600020905b81548152906001019060200180831161090c57829003601f168201915b5050505050905090565b61094561093e610b8e565b838361101b565b5050565b61095a610954610b8e565b83610c4f565b610999576040517f08c379a000000000000000000000000000000000000000000000000000000000815260040161099090611d9f565b60405180910390fd5b6109a584848484611188565b50505050565b60606109b56111e4565b6109fe6109c0610476565b604051806080016040528060438152602001612696604391396040516020016109ea929190611cab565b604051602081830303815290604052611221565b604051602001610a0f929190611c87565b6040516020818303038152906040529050919050565b6000600560008473ffffffffffffffffffffffffffffffffffffffff1673ffffffffffffffffffffffffffffffffffffffff16815260200190815260200160002060008373ffffffffffffffffffffffffffffffffffffffff1673ffffffffffffffffffffffffffffffffffffffff16815260200190815260200160002060009054906101000a900460ff16905092915050565b60076020528060005260406000206000915054906101000a900460ff1681565b60007f01ffc9a7000000000000000000000000000000000000000000000000000000007bffffffffffffffffffffffffffffffffffffffffffffffffffffffff1916827bffffffffffffffffffffffffffffffffffffffffffffffffffffffff1916149050919050565b610b4c816113a6565b610b8b576040517f08c379a0000000000000000000000000000000000000000000000000000000008152600401610b8290611e5f565b60405180910390fd5b50565b600033905090565b816004600083815260200190815260200160002060006101000a81548173ffffffffffffffffffffffffffffffffffffffff021916908373ffffffffffffffffffffffffffffffffffffffff160217905550808273ffffffffffffffffffffffffffffffffffffffff16610c0983610758565b73ffffffffffffffffffffffffffffffffffffffff167f8c5be1e5ebec7d5bd14f71427d1e84f3dd0314c0f7b2291e5b200ac8c7c3b92560405160405180910390a45050565b600080610c5b83610758565b90508073ffffffffffffffffffffffffffffffffffffffff168473ffffffffffffffffffffffffffffffffffffffff161480610c9d5750610c9c8185610a25565b5b80610cdb57508373ffffffffffffffffffffffffffffffffffffffff16610cc384610508565b73ffffffffffffffffffffffffffffffffffffffff16145b91505092915050565b8273ffffffffffffffffffffffffffffffffffffffff16610d0482610758565b73ffffffffffffffffffffffffffffffffffffffff1614610d5a576040517f08c379a0000000000000000000000000000000000000000000000000000000008152600401610d5190611ddf565b60405180910390fd5b600073ffffffffffffffffffffffffffffffffffffffff168273ffffffffffffffffffffffffffffffffffffffff161415610dca576040517f08c379a0000000000000000000000000000000000000000000000000000000008152600401610dc190611dff565b60405180910390fd5b610dd783838360016113e7565b8273ffffffffffffffffffffffffffffffffffffffff16610df782610758565b73ffffffffffffffffffffffffffffffffffffffff1614610e4d576040517f08c379a0000000000000000000000000000000000000000000000000000000008152600401610e4490611ddf565b60405180910390fd5b6004600082815260200190815260200160002060006101000a81549073ffffffffffffffffffffffffffffffffffffffff02191690556001600360008573ffffffffffffffffffffffffffffffffffffffff1673ffffffffffffffffffffffffffffffffffffffff168152602001908152602001600020600082825403925050819055506001600360008473ffffffffffffffffffffffffffffffffffffffff1673ffffffffffffffffffffffffffffffffffffffff16815260200190815260200160002060008282540192505081905550816002600083815260200190815260200160002060006101000a81548173ffffffffffffffffffffffffffffffffffffffff021916908373ffffffffffffffffffffffffffffffffffffffff160217905550808273ffffffffffffffffffffffffffffffffffffffff168473ffffffffffffffffffffffffffffffffffffffff167fddf252ad1be2c89b69c2b068fc378daa952ba7f163c4a11628f55a4df523b3ef60405160405180910390a4610fd9838383600161150d565b505050565b60006002600083815260200190815260200160002060009054906101000a900473ffffffffffffffffffffffffffffffffffffffff169050919050565b8173ffffffffffffffffffffffffffffffffffffffff168373ffffffffffffffffffffffffffffffffffffffff16141561108a576040517f08c379a000000000000000000000000000000000000000000000000000000000815260040161108190611e1f565b60405180910390fd5b80600560008573ffffffffffffffffffffffffffffffffffffffff1673ffffffffffffffffffffffffffffffffffffffff16815260200190815260200160002060008473ffffffffffffffffffffffffffffffffffffffff1673ffffffffffffffffffffffffffffffffffffffff16815260200190815260200160002060006101000a81548160ff0219169083151502179055508173ffffffffffffffffffffffffffffffffffffffff168373ffffffffffffffffffffffffffffffffffffffff167f17307eab39ab6107e8899845ad3d59bd9653f200f220920489ca2b5937696c318360405161117b9190611d62565b60405180910390a3505050565b611193848484610ce4565b61119f84848484611513565b6111de576040517f08c379a00000000000000000000000000000000000000000000000000000000081526004016111d590611dbf565b60405180910390fd5b50505050565b60606040518060400160405280601d81526020017f646174613a6170706c69636174696f6e2f6a736f6e3b6261736536342c000000815250905090565b6060600082511415611244576040518060200160405280600081525090506113a1565b60006040518060600160405280604081526020016126d960409139905060006003600285516112739190611f73565b61127d9190611fc9565b60046112899190611ffa565b9050600060208261129a9190611f73565b67ffffffffffffffff8111156112b3576112b261222e565b5b6040519080825280601f01601f1916602001820160405280156112e55781602001600182028036833780820191505090505b509050818152600183018586518101602084015b81831015611360576003830192508251603f8160121c1685015160f81b8252600182019150603f81600c1c1685015160f81b8252600182019150603f8160061c1685015160f81b8252600182019150603f811685015160f81b8252600182019150506112f9565b60038951066001811461137a576002811461138a57611395565b613d3d60f01b6002830352611395565b603d60f81b60018303525b50505050508093505050505b919050565b60008073ffffffffffffffffffffffffffffffffffffffff166113c883610fde565b73ffffffffffffffffffffffffffffffffffffffff1614159050919050565b600181111561150757600073ffffffffffffffffffffffffffffffffffffffff168473ffffffffffffffffffffffffffffffffffffffff161461147b5780600360008673ffffffffffffffffffffffffffffffffffffffff1673ffffffffffffffffffffffffffffffffffffffff16815260200190815260200160002060008282546114739190612054565b925050819055505b600073ffffffffffffffffffffffffffffffffffffffff168373ffffffffffffffffffffffffffffffffffffffff16146115065780600360008573ffffffffffffffffffffffffffffffffffffffff1673ffffffffffffffffffffffffffffffffffffffff16815260200190815260200160002060008282546114fe9190611f73565b925050819055505b5b50505050565b50505050565b60006115348473ffffffffffffffffffffffffffffffffffffffff166116aa565b1561169d578373ffffffffffffffffffffffffffffffffffffffff1663150b7a0261155d610b8e565b8786866040518563ffffffff1660e01b815260040161157f9493929190611d16565b602060405180830381600087803b15801561159957600080fd5b505af19250505080156115ca57506040513d601f19601f820116820180604052508101906115c79190611996565b60015b61164d573d80600081146115fa576040519150601f19603f3d011682016040523d82523d6000602084013e6115ff565b606091505b50600081511415611645576040517f08c379a000000000000000000000000000000000000000000000000000000000815260040161163c90611dbf565b60405180910390fd5b805181602001fd5b63150b7a0260e01b7bffffffffffffffffffffffffffffffffffffffffffffffffffffffff1916817bffffffffffffffffffffffffffffffffffffffffffffffffffffffff1916149150506116a2565b600190505b949350505050565b6000808273ffffffffffffffffffffffffffffffffffffffff163b119050919050565b60006116e06116db84611eff565b611eda565b9050828152602081018484840111156116fc576116fb612262565b5b6117078482856120fc565b509392505050565b60008135905061171e81612639565b92915050565b60008135905061173381612650565b92915050565b60008135905061174881612667565b92915050565b60008151905061175d81612667565b92915050565b600082601f8301126117785761177761225d565b5b81356117888482602086016116cd565b91505092915050565b6000813590506117a08161267e565b92915050565b6000602082840312156117bc576117bb61226c565b5b60006117ca8482850161170f565b91505092915050565b600080604083850312156117ea576117e961226c565b5b60006117f88582860161170f565b92505060206118098582860161170f565b9150509250929050565b60008060006060848603121561182c5761182b61226c565b5b600061183a8682870161170f565b935050602061184b8682870161170f565b925050604061185c86828701611791565b9150509250925092565b600080600080608085870312156118805761187f61226c565b5b600061188e8782880161170f565b945050602061189f8782880161170f565b93505060406118b087828801611791565b925050606085013567ffffffffffffffff8111156118d1576118d0612267565b5b6118dd87828801611763565b91505092959194509250565b60008060408385031215611900576118ff61226c565b5b600061190e8582860161170f565b925050602061191f85828601611724565b9150509250929050565b600080604083850312156119405761193f61226c565b5b600061194e8582860161170f565b925050602061195f85828601611791565b9150509250929050565b60006020828403121561197f5761197e61226c565b5b600061198d84828501611739565b91505092915050565b6000602082840312156119ac576119ab61226c565b5b60006119ba8482850161174e565b91505092915050565b6000602082840312156119d9576119d861226c565b5b60006119e784828501611791565b91505092915050565b6119f981612088565b82525050565b611a088161209a565b82525050565b6000611a1982611f30565b611a238185611f46565b9350611a3381856020860161210b565b611a3c81612271565b840191505092915050565b6000611a5282611f3b565b611a5c8185611f57565b9350611a6c81856020860161210b565b611a7581612271565b840191505092915050565b6000611a8b82611f3b565b611a958185611f68565b9350611aa581856020860161210b565b80840191505092915050565b6000611abe602d83611f57565b9150611ac982612282565b604082019050919050565b6000611ae1600983611f68565b9150611aec826122d1565b600982019050919050565b6000611b04603283611f57565b9150611b0f826122fa565b604082019050919050565b6000611b27602583611f57565b9150611b3282612349565b604082019050919050565b6000611b4a604d83611f68565b9150611b5582612398565b604d82019050919050565b6000611b6d602483611f57565b9150611b788261240d565b604082019050919050565b6000611b90601983611f57565b9150611b9b8261245c565b602082019050919050565b6000611bb3604183611f68565b9150611bbe82612485565b604182019050919050565b6000611bd6602983611f57565b9150611be1826124fa565b604082019050919050565b6000611bf9600283611f68565b9150611c0482612549565b600282019050919050565b6000611c1c601883611f57565b9150611c2782612572565b602082019050919050565b6000611c3f602183611f57565b9150611c4a8261259b565b604082019050919050565b6000611c62603d83611f57565b9150611c6d826125ea565b604082019050919050565b611c81816120f2565b82525050565b6000611c938285611a80565b9150611c9f8284611a80565b91508190509392505050565b6000611cb682611ad4565b9150611cc28285611a80565b9150611ccd82611b3d565b9150611cd882611ba6565b9150611ce48284611a80565b9150611cef82611bec565b91508190509392505050565b6000602082019050611d1060008301846119f0565b92915050565b6000608082019050611d2b60008301876119f0565b611d3860208301866119f0565b611d456040830185611c78565b8181036060830152611d578184611a0e565b905095945050505050565b6000602082019050611d7760008301846119ff565b92915050565b60006020820190508181036000830152611d978184611a47565b905092915050565b60006020820190508181036000830152611db881611ab1565b9050919050565b60006020820190508181036000830152611dd881611af7565b9050919050565b60006020820190508181036000830152611df881611b1a565b9050919050565b60006020820190508181036000830152611e1881611b60565b9050919050565b60006020820190508181036000830152611e3881611b83565b9050919050565b60006020820190508181036000830152611e5881611bc9565b9050919050565b60006020820190508181036000830152611e7881611c0f565b9050919050565b60006020820190508181036000830152611e9881611c32565b9050919050565b60006020820190508181036000830152611eb881611c55565b9050919050565b6000602082019050611ed46000830184611c78565b92915050565b6000611ee4611ef5565b9050611ef08282612170565b919050565b6000604051905090565b600067ffffffffffffffff821115611f1a57611f1961222e565b5b611f2382612271565b9050602081019050919050565b600081519050919050565b600081519050919050565b600082825260208201905092915050565b600082825260208201905092915050565b600081905092915050565b6000611f7e826120f2565b9150611f89836120f2565b9250827fffffffffffffffffffffffffffffffffffffffffffffffffffffffffffffffff03821115611fbe57611fbd6121a1565b5b828201905092915050565b6000611fd4826120f2565b9150611fdf836120f2565b925082611fef57611fee6121d0565b5b828204905092915050565b6000612005826120f2565b9150612010836120f2565b9250817fffffffffffffffffffffffffffffffffffffffffffffffffffffffffffffffff0483118215151615612049576120486121a1565b5b828202905092915050565b600061205f826120f2565b915061206a836120f2565b92508282101561207d5761207c6121a1565b5b828203905092915050565b6000612093826120d2565b9050919050565b60008115159050919050565b60007fffffffff0000000000000000000000000000000000000000000000000000000082169050919050565b600073ffffffffffffffffffffffffffffffffffffffff82169050919050565b6000819050919050565b82818337600083830152505050565b60005b8381101561212957808201518184015260208101905061210e565b83811115612138576000848401525b50505050565b6000600282049050600182168061215657607f821691505b6020821081141561216a576121696121ff565b5b50919050565b61217982612271565b810181811067ffffffffffffffff821117156121985761219761222e565b5b80604052505050565b7f4e487b7100000000000000000000000000000000000000000000000000000000600052601160045260246000fd5b7f4e487b7100000000000000000000000000000000000000000000000000000000600052601260045260246000fd5b7f4e487b7100000000000000000000000000000000000000000000000000000000600052602260045260246000fd5b7f4e487b7100000000000000000000000000000000000000000000000000000000600052604160045260246000fd5b600080fd5b600080fd5b600080fd5b600080fd5b6000601f19601f8301169050919050565b7f4552433732313a2063616c6c6572206973206e6f7420746f6b656e206f776e6560008201527f72206f7220617070726f76656400000000000000000000000000000000000000602082015250565b7f7b226e616d65223a220000000000000000000000000000000000000000000000600082015250565b7f4552433732313a207472616e7366657220746f206e6f6e20455243373231526560008201527f63656976657220696d706c656d656e7465720000000000000000000000000000602082015250565b7f4552433732313a207472616e736665722066726f6d20696e636f72726563742060008201527f6f776e6572000000000000000000000000000000000000000000000000000000602082015250565b7f222c20226465736372697074696f6e223a22596f75206361707475726564207460008201527f686973204e46542061732070617274206f662074686520656475636174696f6e60208201527f616c2053747265616d21222c2000000000000000000000000000000000000000604082015250565b7f4552433732313a207472616e7366657220746f20746865207a65726f2061646460008201527f7265737300000000000000000000000000000000000000000000000000000000602082015250565b7f4552433732313a20617070726f766520746f2063616c6c657200000000000000600082015250565b7f2261747472696275746573223a205b7b2274726169745f74797065223a20227360008201527f6b696c6c73222c202276616c7565223a203130307d5d2c2022696d616765223a60208201527f2200000000000000000000000000000000000000000000000000000000000000604082015250565b7f4552433732313a2061646472657373207a65726f206973206e6f74206120766160008201527f6c6964206f776e65720000000000000000000000000000000000000000000000602082015250565b7f227d000000000000000000000000000000000000000000000000000000000000600082015250565b7f4552433732313a20696e76616c696420746f6b656e2049440000000000000000600082015250565b7f4552433732313a20617070726f76616c20746f2063757272656e74206f776e6560008201527f7200000000000000000000000000000000000000000000000000000000000000602082015250565b7f4552433732313a20617070726f76652063616c6c6572206973206e6f7420746f60008201527f6b656e206f776e6572206f7220617070726f76656420666f7220616c6c000000602082015250565b61264281612088565b811461264d57600080fd5b50565b6126598161209a565b811461266457600080fd5b50565b612670816120a6565b811461267b57600080fd5b50565b612687816120f2565b811461269257600080fd5b5056fe68747470733a2f2f697066732e696f2f697066732f516d5565585636335676725958774436356774457a365746434a786f363250484a3570437569664336716d3675554142434445464748494a4b4c4d4e4f505152535455565758595a6162636465666768696a6b6c6d6e6f707172737475767778797a303132333435363738392b2fa264697066735822122082fbcb45d18343bb3830f6e3e774e8b41587b729a06e8ed3d06895897964c1bb64736f6c63430008070033",
  "linkReferences": {},
  "deployedLinkReferences": {}
}