{
  "_format": "hh-sol-artifact-1",
  "contractName": "StreamNft",
  "sourceName": "contracts/triviaStream.sol",
  "abi": [
    {
      "inputs": [],
      "stateMutability": "nonpayable",
      "type": "constructor"
    },
    {
      "anonymous": false,
      "inputs": [
        {
          "indexed": true,
          "internalType": "address",
          "name": "owner",
          "type": "address"
        },
        {
          "indexed": true,
          "internalType": "address",
          "name": "approved",
          "type": "address"
        },
        {
          "indexed": true,
          "internalType": "uint256",
          "name": "tokenId",
          "type": "uint256"
        }
      ],
      "name": "Approval",
      "type": "event"
    },
    {
      "anonymous": false,
      "inputs": [
        {
          "indexed": true,
          "internalType": "address",
          "name": "owner",
          "type": "address"
        },
        {
          "indexed": true,
          "internalType": "address",
          "name": "operator",
          "type": "address"
        },
        {
          "indexed": false,
          "internalType": "bool",
          "name": "approved",
          "type": "bool"
        }
      ],
      "name": "ApprovalForAll",
      "type": "event"
    },
    {
      "anonymous": false,
      "inputs": [
        {
          "indexed": true,
          "internalType": "address",
          "name": "from",
          "type": "address"
        },
        {
          "indexed": true,
          "internalType": "address",
          "name": "to",
          "type": "address"
        },
        {
          "indexed": true,
          "internalType": "uint256",
          "name": "tokenId",
          "type": "uint256"
        }
      ],
      "name": "Transfer",
      "type": "event"
    },
    {
      "inputs": [],
      "name": "TOKEN_IMAGE_URI",
      "outputs": [
        {
          "internalType": "string",
          "name": "",
          "type": "string"
        }
      ],
      "stateMutability": "view",
      "type": "function"
    },
    {
      "inputs": [
        {
          "internalType": "address",
          "name": "to",
          "type": "address"
        },
        {
          "internalType": "uint256",
          "name": "tokenId",
          "type": "uint256"
        }
      ],
      "name": "approve",
      "outputs": [],
      "stateMutability": "nonpayable",
      "type": "function"
    },
    {
      "inputs": [
        {
          "internalType": "address",
          "name": "owner",
          "type": "address"
        }
      ],
      "name": "balanceOf",
      "outputs": [
        {
          "internalType": "uint256",
          "name": "",
          "type": "uint256"
        }
      ],
      "stateMutability": "view",
      "type": "function"
    },
    {
      "inputs": [
        {
          "internalType": "uint256",
          "name": "tokenId",
          "type": "uint256"
        }
      ],
      "name": "getApproved",
      "outputs": [
        {
          "internalType": "address",
          "name": "",
          "type": "address"
        }
      ],
      "stateMutability": "view",
      "type": "function"
    },
    {
      "inputs": [],
      "name": "getTokenCounter",
      "outputs": [
        {
          "internalType": "uint256",
          "name": "",
          "type": "uint256"
        }
      ],
      "stateMutability": "view",
      "type": "function"
    },
    {
      "inputs": [
        {
          "internalType": "address",
          "name": "addr",
          "type": "address"
        }
      ],
      "name": "hasNft",
      "outputs": [
        {
          "internalType": "bool",
          "name": "",
          "type": "bool"
        }
      ],
      "stateMutability": "view",
      "type": "function"
    },
    {
      "inputs": [
        {
          "internalType": "address",
          "name": "owner",
          "type": "address"
        },
        {
          "internalType": "address",
          "name": "operator",
          "type": "address"
        }
      ],
      "name": "isApprovedForAll",
      "outputs": [
        {
          "internalType": "bool",
          "name": "",
          "type": "bool"
        }
      ],
      "stateMutability": "view",
      "type": "function"
    },
    {
      "inputs": [
        {
          "internalType": "uint256",
          "name": "value",
          "type": "uint256"
        }
      ],
      "name": "mintNft",
      "outputs": [],
      "stateMutability": "nonpayable",
      "type": "function"
    },
    {
      "inputs": [],
      "name": "name",
      "outputs": [
        {
          "internalType": "string",
          "name": "",
          "type": "string"
        }
      ],
      "stateMutability": "view",
      "type": "function"
    },
    {
      "inputs": [
        {
          "internalType": "uint256",
          "name": "tokenId",
          "type": "uint256"
        }
      ],
      "name": "ownerOf",
      "outputs": [
        {
          "internalType": "address",
          "name": "",
          "type": "address"
        }
      ],
      "stateMutability": "view",
      "type": "function"
    },
    {
      "inputs": [
        {
          "internalType": "address",
          "name": "",
          "type": "address"
        }
      ],
      "name": "s_hasNft",
      "outputs": [
        {
          "internalType": "bool",
          "name": "",
          "type": "bool"
        }
      ],
      "stateMutability": "view",
      "type": "function"
    },
    {
      "inputs": [
        {
          "internalType": "address",
          "name": "from",
          "type": "address"
        },
        {
          "internalType": "address",
          "name": "to",
          "type": "address"
        },
        {
          "internalType": "uint256",
          "name": "tokenId",
          "type": "uint256"
        }
      ],
      "name": "safeTransferFrom",
      "outputs": [],
      "stateMutability": "nonpayable",
      "type": "function"
    },
    {
      "inputs": [
        {
          "internalType": "address",
          "name": "from",
          "type": "address"
        },
        {
          "internalType": "address",
          "name": "to",
          "type": "address"
        },
        {
          "internalType": "uint256",
          "name": "tokenId",
          "type": "uint256"
        },
        {
          "internalType": "bytes",
          "name": "data",
          "type": "bytes"
        }
      ],
      "name": "safeTransferFrom",
      "outputs": [],
      "stateMutability": "nonpayable",
      "type": "function"
    },
    {
      "inputs": [
        {
          "internalType": "address",
          "name": "operator",
          "type": "address"
        },
        {
          "internalType": "bool",
          "name": "approved",
          "type": "bool"
        }
      ],
      "name": "setApprovalForAll",
      "outputs": [],
      "stateMutability": "nonpayable",
      "type": "function"
    },
    {
      "inputs": [
        {
          "internalType": "bytes4",
          "name": "interfaceId",
          "type": "bytes4"
        }
      ],
      "name": "supportsInterface",
      "outputs": [
        {
          "internalType": "bool",
          "name": "",
          "type": "bool"
        }
      ],
      "stateMutability": "view",
      "type": "function"
    },
    {
      "inputs": [],
      "name": "symbol",
      "outputs": [
        {
          "internalType": "string",
          "name": "",
          "type": "string"
        }
      ],
      "stateMutability": "view",
      "type": "function"
    },
    {
      "inputs": [
        {
          "internalType": "uint256",
          "name": "",
          "type": "uint256"
        }
      ],
      "name": "tokenURI",
      "outputs": [
        {
          "internalType": "string",
          "name": "",
          "type": "string"
        }
      ],
      "stateMutability": "view",
      "type": "function"
    },
    {
      "inputs": [
        {
          "internalType": "address",
          "name": "from",
          "type": "address"
        },
        {
          "internalType": "address",
          "name": "to",
          "type": "address"
        },
        {
          "internalType": "uint256",
          "name": "tokenId",
          "type": "uint256"
        }
      ],
      "name": "transferFrom",
      "outputs": [],
      "stateMutability": "nonpayable",
      "type": "function"
    }
  ],
  "bytecode": "0x60806040523480156200001157600080fd5b506040518060400160405280600c81526020017f53747265616d54726976696100000000000000000000000000000000000000008152506040518060400160405280600781526020017f6c6576656c203100000000000000000000000000000000000000000000000000815250816000908051906020019062000096929190620000c0565b508060019080519060200190620000af929190620000c0565b5050506000600681905550620001d5565b828054620000ce9062000170565b90600052602060002090601f016020900481019282620000f257600085556200013e565b82601f106200010d57805160ff19168380011785556200013e565b828001600101855582156200013e579182015b828111156200013d57825182559160200191906001019062000120565b5b5090506200014d919062000151565b5090565b5b808211156200016c57600081600090555060010162000152565b5090565b600060028204905060018216806200018957607f821691505b60208210811415620001a0576200019f620001a6565b5b50919050565b7f4e487b7100000000000000000000000000000000000000000000000000000000600052602260045260246000fd5b612c2580620001e56000396000f3fe608060405234801561001057600080fd5b50600436106101165760003560e01c80636352211e116100a2578063a22cb46511610071578063a22cb465146102f3578063b88d4fde1461030f578063c87b56dd1461032b578063e985e9c51461035b578063f5d18d351461038b57610116565b80636352211e146102575780636e02007d1461028757806370a08231146102a557806395d89b41146102d557610116565b80630d730acc116100e95780630d730acc146101b557806323b872dd146101d157806342842e0e146101ed5780634ed7ff63146102095780635dbe700f1461023957610116565b806301ffc9a71461011b57806306fdde031461014b578063081812fc14610169578063095ea7b314610199575b600080fd5b61013560048036038101906101309190611cfc565b6103bb565b604051610142919061215e565b60405180910390f35b61015361049d565b6040516101609190612179565b60405180910390f35b610183600480360381019061017e9190611d56565b61052f565b60405161019091906120f7565b60405180910390f35b6101b360048036038101906101ae9190611cbc565b610575565b005b6101cf60048036038101906101ca9190611d56565b61068d565b005b6101eb60048036038101906101e69190611ba6565b6106e7565b005b61020760048036038101906102029190611ba6565b610747565b005b610223600480360381019061021e9190611b39565b610767565b604051610230919061215e565b60405180910390f35b6102416107bd565b60405161024e9190612179565b60405180910390f35b610271600480360381019061026c9190611d56565b6107d9565b60405161027e91906120f7565b60405180910390f35b61028f610860565b60405161029c919061231b565b60405180910390f35b6102bf60048036038101906102ba9190611b39565b61086a565b6040516102cc919061231b565b60405180910390f35b6102dd610922565b6040516102ea9190612179565b60405180910390f35b61030d60048036038101906103089190611c7c565b6109b4565b005b61032960048036038101906103249190611bf9565b6109ca565b005b61034560048036038101906103409190611d56565b610a2c565b6040516103529190612179565b60405180910390f35b61037560048036038101906103709190611b66565b610aa6565b604051610382919061215e565b60405180910390f35b6103a560048036038101906103a09190611b39565b610b3a565b6040516103b2919061215e565b60405180910390f35b60007f80ac58cd000000000000000000000000000000000000000000000000000000007bffffffffffffffffffffffffffffffffffffffffffffffffffffffff1916827bffffffffffffffffffffffffffffffffffffffffffffffffffffffff1916148061048657507f5b5e139f000000000000000000000000000000000000000000000000000000007bffffffffffffffffffffffffffffffffffffffffffffffffffffffff1916827bffffffffffffffffffffffffffffffffffffffffffffffffffffffff1916145b80610496575061049582610b5a565b5b9050919050565b6060600080546104ac9061259a565b80601f01602080910402602001604051908101604052809291908181526020018280546104d89061259a565b80156105255780601f106104fa57610100808354040283529160200191610525565b820191906000526020600020905b81548152906001019060200180831161050857829003601f168201915b5050505050905090565b600061053a82610bc4565b6004600083815260200190815260200160002060009054906101000a900473ffffffffffffffffffffffffffffffffffffffff169050919050565b6000610580826107d9565b90508073ffffffffffffffffffffffffffffffffffffffff168373ffffffffffffffffffffffffffffffffffffffff1614156105f1576040517f08c379a00000000000000000000000000000000000000000000000000000000081526004016105e8906122db565b60405180910390fd5b8073ffffffffffffffffffffffffffffffffffffffff16610610610c0f565b73ffffffffffffffffffffffffffffffffffffffff16148061063f575061063e81610639610c0f565b610aa6565b5b61067e576040517f08c379a0000000000000000000000000000000000000000000000000000000008152600401610675906122fb565b60405180910390fd5b6106888383610c17565b505050565b600481600261069c91906123cf565b146106dc576040517f08c379a00000000000000000000000000000000000000000000000000000000081526004016106d3906121db565b60405180910390fd5b6106e4610cd0565b50565b6106f86106f2610c0f565b82610d4b565b610737576040517f08c379a000000000000000000000000000000000000000000000000000000000815260040161072e9061219b565b60405180910390fd5b610742838383610de0565b505050565b610762838383604051806020016040528060008152506109ca565b505050565b6000600760008373ffffffffffffffffffffffffffffffffffffffff1673ffffffffffffffffffffffffffffffffffffffff16815260200190815260200160002060009054906101000a900460ff169050919050565b604051806080016040528060438152602001612b6d6043913981565b6000806107e5836110da565b9050600073ffffffffffffffffffffffffffffffffffffffff168173ffffffffffffffffffffffffffffffffffffffff161415610857576040517f08c379a000000000000000000000000000000000000000000000000000000000815260040161084e906122bb565b60405180910390fd5b80915050919050565b6000600654905090565b60008073ffffffffffffffffffffffffffffffffffffffff168273ffffffffffffffffffffffffffffffffffffffff1614156108db576040517f08c379a00000000000000000000000000000000000000000000000000000000081526004016108d29061227b565b60405180910390fd5b600360008373ffffffffffffffffffffffffffffffffffffffff1673ffffffffffffffffffffffffffffffffffffffff168152602001908152602001600020549050919050565b6060600180546109319061259a565b80601f016020809104026020016040519081016040528092919081815260200182805461095d9061259a565b80156109aa5780601f1061097f576101008083540402835291602001916109aa565b820191906000526020600020905b81548152906001019060200180831161098d57829003601f168201915b5050505050905090565b6109c66109bf610c0f565b8383611117565b5050565b6109db6109d5610c0f565b83610d4b565b610a1a576040517f08c379a0000000000000000000000000000000000000000000000000000000008152600401610a119061219b565b60405180910390fd5b610a2684848484611284565b50505050565b6060610a366112e0565b610a7f610a4161049d565b604051806080016040528060438152602001612b6d60439139604051602001610a6b9291906120a7565b60405160208183030381529060405261131d565b604051602001610a90929190612083565b6040516020818303038152906040529050919050565b6000600560008473ffffffffffffffffffffffffffffffffffffffff1673ffffffffffffffffffffffffffffffffffffffff16815260200190815260200160002060008373ffffffffffffffffffffffffffffffffffffffff1673ffffffffffffffffffffffffffffffffffffffff16815260200190815260200160002060009054906101000a900460ff16905092915050565b60076020528060005260406000206000915054906101000a900460ff1681565b60007f01ffc9a7000000000000000000000000000000000000000000000000000000007bffffffffffffffffffffffffffffffffffffffffffffffffffffffff1916827bffffffffffffffffffffffffffffffffffffffffffffffffffffffff1916149050919050565b610bcd816114a2565b610c0c576040517f08c379a0000000000000000000000000000000000000000000000000000000008152600401610c03906122bb565b60405180910390fd5b50565b600033905090565b816004600083815260200190815260200160002060006101000a81548173ffffffffffffffffffffffffffffffffffffffff021916908373ffffffffffffffffffffffffffffffffffffffff160217905550808273ffffffffffffffffffffffffffffffffffffffff16610c8a836107d9565b73ffffffffffffffffffffffffffffffffffffffff167f8c5be1e5ebec7d5bd14f71427d1e84f3dd0314c0f7b2291e5b200ac8c7c3b92560405160405180910390a45050565b610cdc336006546114e3565b6001600654610ceb91906123cf565b6006819055506001600760003373ffffffffffffffffffffffffffffffffffffffff1673ffffffffffffffffffffffffffffffffffffffff16815260200190815260200160002060006101000a81548160ff021916908315150217905550565b600080610d57836107d9565b90508073ffffffffffffffffffffffffffffffffffffffff168473ffffffffffffffffffffffffffffffffffffffff161480610d995750610d988185610aa6565b5b80610dd757508373ffffffffffffffffffffffffffffffffffffffff16610dbf8461052f565b73ffffffffffffffffffffffffffffffffffffffff16145b91505092915050565b8273ffffffffffffffffffffffffffffffffffffffff16610e00826107d9565b73ffffffffffffffffffffffffffffffffffffffff1614610e56576040517f08c379a0000000000000000000000000000000000000000000000000000000008152600401610e4d906121fb565b60405180910390fd5b600073ffffffffffffffffffffffffffffffffffffffff168273ffffffffffffffffffffffffffffffffffffffff161415610ec6576040517f08c379a0000000000000000000000000000000000000000000000000000000008152600401610ebd9061223b565b60405180910390fd5b610ed38383836001611501565b8273ffffffffffffffffffffffffffffffffffffffff16610ef3826107d9565b73ffffffffffffffffffffffffffffffffffffffff1614610f49576040517f08c379a0000000000000000000000000000000000000000000000000000000008152600401610f40906121fb565b60405180910390fd5b6004600082815260200190815260200160002060006101000a81549073ffffffffffffffffffffffffffffffffffffffff02191690556001600360008573ffffffffffffffffffffffffffffffffffffffff1673ffffffffffffffffffffffffffffffffffffffff168152602001908152602001600020600082825403925050819055506001600360008473ffffffffffffffffffffffffffffffffffffffff1673ffffffffffffffffffffffffffffffffffffffff16815260200190815260200160002060008282540192505081905550816002600083815260200190815260200160002060006101000a81548173ffffffffffffffffffffffffffffffffffffffff021916908373ffffffffffffffffffffffffffffffffffffffff160217905550808273ffffffffffffffffffffffffffffffffffffffff168473ffffffffffffffffffffffffffffffffffffffff167fddf252ad1be2c89b69c2b068fc378daa952ba7f163c4a11628f55a4df523b3ef60405160405180910390a46110d58383836001611627565b505050565b60006002600083815260200190815260200160002060009054906101000a900473ffffffffffffffffffffffffffffffffffffffff169050919050565b8173ffffffffffffffffffffffffffffffffffffffff168373ffffffffffffffffffffffffffffffffffffffff161415611186576040517f08c379a000000000000000000000000000000000000000000000000000000000815260040161117d9061225b565b60405180910390fd5b80600560008573ffffffffffffffffffffffffffffffffffffffff1673ffffffffffffffffffffffffffffffffffffffff16815260200190815260200160002060008473ffffffffffffffffffffffffffffffffffffffff1673ffffffffffffffffffffffffffffffffffffffff16815260200190815260200160002060006101000a81548160ff0219169083151502179055508173ffffffffffffffffffffffffffffffffffffffff168373ffffffffffffffffffffffffffffffffffffffff167f17307eab39ab6107e8899845ad3d59bd9653f200f220920489ca2b5937696c3183604051611277919061215e565b60405180910390a3505050565b61128f848484610de0565b61129b8484848461162d565b6112da576040517f08c379a00000000000000000000000000000000000000000000000000000000081526004016112d1906121bb565b60405180910390fd5b50505050565b60606040518060400160405280601d81526020017f646174613a6170706c69636174696f6e2f6a736f6e3b6261736536342c000000815250905090565b60606000825114156113405760405180602001604052806000815250905061149d565b6000604051806060016040528060408152602001612bb0604091399050600060036002855161136f91906123cf565b6113799190612425565b60046113859190612456565b9050600060208261139691906123cf565b67ffffffffffffffff8111156113af576113ae61268a565b5b6040519080825280601f01601f1916602001820160405280156113e15781602001600182028036833780820191505090505b509050818152600183018586518101602084015b8183101561145c576003830192508251603f8160121c1685015160f81b8252600182019150603f81600c1c1685015160f81b8252600182019150603f8160061c1685015160f81b8252600182019150603f811685015160f81b8252600182019150506113f5565b600389510660018114611476576002811461148657611491565b613d3d60f01b6002830352611491565b603d60f81b60018303525b50505050508093505050505b919050565b60008073ffffffffffffffffffffffffffffffffffffffff166114c4836110da565b73ffffffffffffffffffffffffffffffffffffffff1614159050919050565b6114fd8282604051806020016040528060008152506117c4565b5050565b600181111561162157600073ffffffffffffffffffffffffffffffffffffffff168473ffffffffffffffffffffffffffffffffffffffff16146115955780600360008673ffffffffffffffffffffffffffffffffffffffff1673ffffffffffffffffffffffffffffffffffffffff168152602001908152602001600020600082825461158d91906124b0565b925050819055505b600073ffffffffffffffffffffffffffffffffffffffff168373ffffffffffffffffffffffffffffffffffffffff16146116205780600360008573ffffffffffffffffffffffffffffffffffffffff1673ffffffffffffffffffffffffffffffffffffffff168152602001908152602001600020600082825461161891906123cf565b925050819055505b5b50505050565b50505050565b600061164e8473ffffffffffffffffffffffffffffffffffffffff1661181f565b156117b7578373ffffffffffffffffffffffffffffffffffffffff1663150b7a02611677610c0f565b8786866040518563ffffffff1660e01b81526004016116999493929190612112565b602060405180830381600087803b1580156116b357600080fd5b505af19250505080156116e457506040513d601f19601f820116820180604052508101906116e19190611d29565b60015b611767573d8060008114611714576040519150601f19603f3d011682016040523d82523d6000602084013e611719565b606091505b5060008151141561175f576040517f08c379a0000000000000000000000000000000000000000000000000000000008152600401611756906121bb565b60405180910390fd5b805181602001fd5b63150b7a0260e01b7bffffffffffffffffffffffffffffffffffffffffffffffffffffffff1916817bffffffffffffffffffffffffffffffffffffffffffffffffffffffff1916149150506117bc565b600190505b949350505050565b6117ce8383611842565b6117db600084848461162d565b61181a576040517f08c379a0000000000000000000000000000000000000000000000000000000008152600401611811906121bb565b60405180910390fd5b505050565b6000808273ffffffffffffffffffffffffffffffffffffffff163b119050919050565b600073ffffffffffffffffffffffffffffffffffffffff168273ffffffffffffffffffffffffffffffffffffffff1614156118b2576040517f08c379a00000000000000000000000000000000000000000000000000000000081526004016118a99061229b565b60405180910390fd5b6118bb816114a2565b156118fb576040517f08c379a00000000000000000000000000000000000000000000000000000000081526004016118f29061221b565b60405180910390fd5b611909600083836001611501565b611912816114a2565b15611952576040517f08c379a00000000000000000000000000000000000000000000000000000000081526004016119499061221b565b60405180910390fd5b6001600360008473ffffffffffffffffffffffffffffffffffffffff1673ffffffffffffffffffffffffffffffffffffffff16815260200190815260200160002060008282540192505081905550816002600083815260200190815260200160002060006101000a81548173ffffffffffffffffffffffffffffffffffffffff021916908373ffffffffffffffffffffffffffffffffffffffff160217905550808273ffffffffffffffffffffffffffffffffffffffff16600073ffffffffffffffffffffffffffffffffffffffff167fddf252ad1be2c89b69c2b068fc378daa952ba7f163c4a11628f55a4df523b3ef60405160405180910390a4611a5c600083836001611627565b5050565b6000611a73611a6e8461235b565b612336565b905082815260208101848484011115611a8f57611a8e6126be565b5b611a9a848285612558565b509392505050565b600081359050611ab181612b10565b92915050565b600081359050611ac681612b27565b92915050565b600081359050611adb81612b3e565b92915050565b600081519050611af081612b3e565b92915050565b600082601f830112611b0b57611b0a6126b9565b5b8135611b1b848260208601611a60565b91505092915050565b600081359050611b3381612b55565b92915050565b600060208284031215611b4f57611b4e6126c8565b5b6000611b5d84828501611aa2565b91505092915050565b60008060408385031215611b7d57611b7c6126c8565b5b6000611b8b85828601611aa2565b9250506020611b9c85828601611aa2565b9150509250929050565b600080600060608486031215611bbf57611bbe6126c8565b5b6000611bcd86828701611aa2565b9350506020611bde86828701611aa2565b9250506040611bef86828701611b24565b9150509250925092565b60008060008060808587031215611c1357611c126126c8565b5b6000611c2187828801611aa2565b9450506020611c3287828801611aa2565b9350506040611c4387828801611b24565b925050606085013567ffffffffffffffff811115611c6457611c636126c3565b5b611c7087828801611af6565b91505092959194509250565b60008060408385031215611c9357611c926126c8565b5b6000611ca185828601611aa2565b9250506020611cb285828601611ab7565b9150509250929050565b60008060408385031215611cd357611cd26126c8565b5b6000611ce185828601611aa2565b9250506020611cf285828601611b24565b9150509250929050565b600060208284031215611d1257611d116126c8565b5b6000611d2084828501611acc565b91505092915050565b600060208284031215611d3f57611d3e6126c8565b5b6000611d4d84828501611ae1565b91505092915050565b600060208284031215611d6c57611d6b6126c8565b5b6000611d7a84828501611b24565b91505092915050565b611d8c816124e4565b82525050565b611d9b816124f6565b82525050565b6000611dac8261238c565b611db681856123a2565b9350611dc6818560208601612567565b611dcf816126cd565b840191505092915050565b6000611de582612397565b611def81856123b3565b9350611dff818560208601612567565b611e08816126cd565b840191505092915050565b6000611e1e82612397565b611e2881856123c4565b9350611e38818560208601612567565b80840191505092915050565b6000611e51602d836123b3565b9150611e5c826126de565b604082019050919050565b6000611e746009836123c4565b9150611e7f8261272d565b600982019050919050565b6000611e976032836123b3565b9150611ea282612756565b604082019050919050565b6000611eba600c836123b3565b9150611ec5826127a5565b602082019050919050565b6000611edd6025836123b3565b9150611ee8826127ce565b604082019050919050565b6000611f00601c836123b3565b9150611f0b8261281d565b602082019050919050565b6000611f23604d836123c4565b9150611f2e82612846565b604d82019050919050565b6000611f466024836123b3565b9150611f51826128bb565b604082019050919050565b6000611f696019836123b3565b9150611f748261290a565b602082019050919050565b6000611f8c6041836123c4565b9150611f9782612933565b604182019050919050565b6000611faf6029836123b3565b9150611fba826129a8565b604082019050919050565b6000611fd26002836123c4565b9150611fdd826129f7565b600282019050919050565b6000611ff56020836123b3565b915061200082612a20565b602082019050919050565b60006120186018836123b3565b915061202382612a49565b602082019050919050565b600061203b6021836123b3565b915061204682612a72565b604082019050919050565b600061205e603d836123b3565b915061206982612ac1565b604082019050919050565b61207d8161254e565b82525050565b600061208f8285611e13565b915061209b8284611e13565b91508190509392505050565b60006120b282611e67565b91506120be8285611e13565b91506120c982611f16565b91506120d482611f7f565b91506120e08284611e13565b91506120eb82611fc5565b91508190509392505050565b600060208201905061210c6000830184611d83565b92915050565b60006080820190506121276000830187611d83565b6121346020830186611d83565b6121416040830185612074565b81810360608301526121538184611da1565b905095945050505050565b60006020820190506121736000830184611d92565b92915050565b600060208201905081810360008301526121938184611dda565b905092915050565b600060208201905081810360008301526121b481611e44565b9050919050565b600060208201905081810360008301526121d481611e8a565b9050919050565b600060208201905081810360008301526121f481611ead565b9050919050565b6000602082019050818103600083015261221481611ed0565b9050919050565b6000602082019050818103600083015261223481611ef3565b9050919050565b6000602082019050818103600083015261225481611f39565b9050919050565b6000602082019050818103600083015261227481611f5c565b9050919050565b6000602082019050818103600083015261229481611fa2565b9050919050565b600060208201905081810360008301526122b481611fe8565b9050919050565b600060208201905081810360008301526122d48161200b565b9050919050565b600060208201905081810360008301526122f48161202e565b9050919050565b6000602082019050818103600083015261231481612051565b9050919050565b60006020820190506123306000830184612074565b92915050565b6000612340612351565b905061234c82826125cc565b919050565b6000604051905090565b600067ffffffffffffffff8211156123765761237561268a565b5b61237f826126cd565b9050602081019050919050565b600081519050919050565b600081519050919050565b600082825260208201905092915050565b600082825260208201905092915050565b600081905092915050565b60006123da8261254e565b91506123e58361254e565b9250827fffffffffffffffffffffffffffffffffffffffffffffffffffffffffffffffff0382111561241a576124196125fd565b5b828201905092915050565b60006124308261254e565b915061243b8361254e565b92508261244b5761244a61262c565b5b828204905092915050565b60006124618261254e565b915061246c8361254e565b9250817fffffffffffffffffffffffffffffffffffffffffffffffffffffffffffffffff04831182151516156124a5576124a46125fd565b5b828202905092915050565b60006124bb8261254e565b91506124c68361254e565b9250828210156124d9576124d86125fd565b5b828203905092915050565b60006124ef8261252e565b9050919050565b60008115159050919050565b60007fffffffff0000000000000000000000000000000000000000000000000000000082169050919050565b600073ffffffffffffffffffffffffffffffffffffffff82169050919050565b6000819050919050565b82818337600083830152505050565b60005b8381101561258557808201518184015260208101905061256a565b83811115612594576000848401525b50505050565b600060028204905060018216806125b257607f821691505b602082108114156125c6576125c561265b565b5b50919050565b6125d5826126cd565b810181811067ffffffffffffffff821117156125f4576125f361268a565b5b80604052505050565b7f4e487b7100000000000000000000000000000000000000000000000000000000600052601160045260246000fd5b7f4e487b7100000000000000000000000000000000000000000000000000000000600052601260045260246000fd5b7f4e487b7100000000000000000000000000000000000000000000000000000000600052602260045260246000fd5b7f4e487b7100000000000000000000000000000000000000000000000000000000600052604160045260246000fd5b600080fd5b600080fd5b600080fd5b600080fd5b6000601f19601f8301169050919050565b7f4552433732313a2063616c6c6572206973206e6f7420746f6b656e206f776e6560008201527f72206f7220617070726f76656400000000000000000000000000000000000000602082015250565b7f7b226e616d65223a220000000000000000000000000000000000000000000000600082015250565b7f4552433732313a207472616e7366657220746f206e6f6e20455243373231526560008201527f63656976657220696d706c656d656e7465720000000000000000000000000000602082015250565b7f57726f6e672076616c7565210000000000000000000000000000000000000000600082015250565b7f4552433732313a207472616e736665722066726f6d20696e636f72726563742060008201527f6f776e6572000000000000000000000000000000000000000000000000000000602082015250565b7f4552433732313a20746f6b656e20616c7265616479206d696e74656400000000600082015250565b7f222c20226465736372697074696f6e223a22596f75206361707475726564207460008201527f686973204e46542061732070617274206f662074686520656475636174696f6e60208201527f616c2053747265616d21222c2000000000000000000000000000000000000000604082015250565b7f4552433732313a207472616e7366657220746f20746865207a65726f2061646460008201527f7265737300000000000000000000000000000000000000000000000000000000602082015250565b7f4552433732313a20617070726f766520746f2063616c6c657200000000000000600082015250565b7f2261747472696275746573223a205b7b2274726169745f74797065223a20227360008201527f6b696c6c73222c202276616c7565223a203130307d5d2c2022696d616765223a60208201527f2200000000000000000000000000000000000000000000000000000000000000604082015250565b7f4552433732313a2061646472657373207a65726f206973206e6f74206120766160008201527f6c6964206f776e65720000000000000000000000000000000000000000000000602082015250565b7f227d000000000000000000000000000000000000000000000000000000000000600082015250565b7f4552433732313a206d696e7420746f20746865207a65726f2061646472657373600082015250565b7f4552433732313a20696e76616c696420746f6b656e2049440000000000000000600082015250565b7f4552433732313a20617070726f76616c20746f2063757272656e74206f776e6560008201527f7200000000000000000000000000000000000000000000000000000000000000602082015250565b7f4552433732313a20617070726f76652063616c6c6572206973206e6f7420746f60008201527f6b656e206f776e6572206f7220617070726f76656420666f7220616c6c000000602082015250565b612b19816124e4565b8114612b2457600080fd5b50565b612b30816124f6565b8114612b3b57600080fd5b50565b612b4781612502565b8114612b5257600080fd5b50565b612b5e8161254e565b8114612b6957600080fd5b5056fe68747470733a2f2f697066732e696f2f697066732f516d5565585636335676725958774436356774457a365746434a786f363250484a3570437569664336716d3675554142434445464748494a4b4c4d4e4f505152535455565758595a6162636465666768696a6b6c6d6e6f707172737475767778797a303132333435363738392b2fa2646970667358221220e273ed072050ccbd435181dbcfe0a834473ff65a2f59f4818d6ac30bae76e86e64736f6c63430008070033",
  "linkReferences": {},
  "deployedLinkReferences": {}
}